20200821-19:48:21.440 : 8=FIX.4.4|9=91|35=1|49=UPROMETHEUM|56=UICSYSTEM|34=631|52=20200821-19:48:21.441|112=20200821-19:48:21.441|10=100|
20200821-19:48:21.440 : 8=FIX.4.4|9=91|35=0|34=631|49=UICSYSTEM|52=20200821-19:48:21.440|56=UPROMETHEUM|112=20200821-19:48:21.441|10=098|
20200821-19:48:51.461 : 8=FIX.4.4|9=91|35=1|49=UPROMETHEUM|56=UICSYSTEM|34=632|52=20200821-19:48:51.472|112=20200821-19:48:51.472|10=115|
20200821-19:48:51.461 : 8=FIX.4.4|9=91|35=0|34=632|49=UICSYSTEM|52=20200821-19:48:51.461|56=UPROMETHEUM|112=20200821-19:48:51.472|10=112|
20200821-19:49:07.841 : 8=FIX.4.4|9=428|35=8|49=UPROMETHEUM|56=UICSYSTEM|34=633|52=20200821-19:49:07.845|37=1484456890000002|11=1484456890000002|453=6|448=PROMC|447=D|452=60|448=CLC|447=D|452=61|448=000000000002C|447=D|452=62|448=CC|447=D|452=63|448=PEATC|447=D|452=66|448=TC|447=D|452=64|17=1484456947000001|150=F|39=2|55=MBR|167=CS|54=1|38=3.000|99=10.010|54=1|38=1.000|99=10.010|54=1|38=2.000|99=7.200|54=2|38=4.000|99=10.010|54=2|38=1.000|99=7.200|54=2|38=1.000|99=7.200|40=2|59=0|32=1.000|31=7.200|30=PEAT|151=0.000|14=6.000|6=9.073|75=20200821|60=20200821-19:49:07.812|7937=00|7938=N0|7939=00|10=082|
20200821-19:49:21.499 : 8=FIX.4.4|9=91|35=1|49=UPROMETHEUM|56=UICSYSTEM|34=634|52=20200821-19:49:21.502|112=20200821-19:49:21.502|10=101|
20200821-19:49:21.499 : 8=FIX.4.4|9=91|35=0|34=633|49=UICSYSTEM|52=20200821-19:49:21.499|56=UPROMETHEUM|112=20200821-19:49:21.502|10=114|
20200821-19:49:51.519 : 8=FIX.4.4|9=91|35=1|49=UPROMETHEUM|56=UICSYSTEM|34=635|52=20200821-19:49:51.523|112=20200821-19:49:51.523|10=114|
20200821-19:49:51.519 : 8=FIX.4.4|9=91|35=0|34=634|49=UICSYSTEM|52=20200821-19:49:51.519|56=UPROMETHEUM|112=20200821-19:49:51.523|10=117|
20200821-19:50:21.544 : 8=FIX.4.4|9=91|35=1|49=UPROMETHEUM|56=UICSYSTEM|34=636|52=20200821-19:50:21.550|112=20200821-19:50:21.550|10=093|
20200821-19:50:21.544 : 8=FIX.4.4|9=91|35=0|34=635|49=UICSYSTEM|52=20200821-19:50:21.544|56=UPROMETHEUM|112=20200821-19:50:21.550|10=094|
20200821-19:50:51.563 : 8=FIX.4.4|9=91|35=1|49=UPROMETHEUM|56=UICSYSTEM|34=637|52=20200821-19:50:51.577|112=20200821-19:50:51.577|10=118|
20200821-19:50:51.563 : 8=FIX.4.4|9=91|35=0|34=636|49=UICSYSTEM|52=20200821-19:50:51.563|56=UPROMETHEUM|112=20200821-19:50:51.577|10=111|
20200821-19:51:16.944 : 8=FIX.4.4|9=428|35=8|49=UPROMETHEUM|56=UICSYSTEM|34=638|52=20200821-19:51:16.946|37=1484456890000004|11=1484456890000004|453=6|448=PROMC|447=D|452=60|448=CLC|447=D|452=61|448=000000000002C|447=D|452=62|448=CC|447=D|452=63|448=PEATC|447=D|452=66|448=TC|447=D|452=64|17=1484456947000002|150=F|39=2|55=MBR|167=CS|54=1|38=5.000|99=15.900|54=1|38=5.000|99=15.900|54=2|38=7.000|99=15.900|54=2|38=1.000|99=15.900|54=2|38=1.000|99=15.900|54=2|38=1.000|99=15.900|40=2|59=0|32=1.000|31=15.900|30=PEAT|151=0.000|14=10.000|6=15.900|75=20200821|60=20200821-19:51:16.923|7937=00|7938=N0|7939=00|10=067|
20200821-19:51:21.600 : 8=FIX.4.4|9=91|35=1|49=UPROMETHEUM|56=UICSYSTEM|34=639|52=20200821-19:51:21.609|112=20200821-19:51:21.609|10=108|
20200821-19:51:21.600 : 8=FIX.4.4|9=91|35=0|34=637|49=UICSYSTEM|52=20200821-19:51:21.600|56=UPROMETHEUM|112=20200821-19:51:21.609|10=096|
20200821-19:51:51.637 : 8=FIX.4.4|9=91|35=1|49=UPROMETHEUM|56=UICSYSTEM|34=640|52=20200821-19:51:51.640|112=20200821-19:51:51.640|10=096|
20200821-19:51:51.637 : 8=FIX.4.4|9=91|35=0|34=638|49=UICSYSTEM|52=20200821-19:51:51.637|56=UPROMETHEUM|112=20200821-19:51:51.640|10=108|
20200821-19:52:16.208 : 8=FIX.4.4|9=428|35=8|49=UPROMETHEUM|56=UICSYSTEM|34=641|52=20200821-19:52:16.220|37=1484456890000005|11=1484456890000005|453=6|448=PROMA|447=D|452=40|448=CLA|447=D|452=41|448=000000000002A|447=D|452=42|448=CA|447=D|452=43|448=PEATA|447=D|452=46|448=TA|447=D|452=44|17=1484456947000003|150=F|39=2|55=MBR|167=CS|54=1|38=5.000|99=15.900|54=1|38=5.000|99=15.900|54=2|38=7.000|99=15.900|54=2|38=1.000|99=15.900|54=2|38=1.000|99=15.900|54=2|38=1.000|99=15.900|40=2|59=0|32=1.000|31=15.900|30=PEAT|151=0.000|14=10.000|6=15.900|75=20200821|60=20200821-19:52:16.194|7937=00|7938=N0|7939=00|10=074|
20200821-19:52:16.224 : 8=FIX.4.4|9=428|35=8|49=UPROMETHEUM|56=UICSYSTEM|34=642|52=20200821-19:52:16.220|37=1484456890000003|11=1484456890000003|453=6|448=PROMA|447=D|452=40|448=CLA|447=D|452=41|448=000000000002A|447=D|452=42|448=CA|447=D|452=43|448=PEATA|447=D|452=46|448=TA|447=D|452=44|17=1484456947000003|150=F|39=2|55=MBR|167=CS|54=1|38=3.000|99=10.010|54=1|38=1.000|99=10.010|54=1|38=2.000|99=7.200|54=2|38=4.000|99=10.010|54=2|38=1.000|99=7.200|54=2|38=1.000|99=7.200|40=2|59=0|32=1.000|31=7.200|30=PEAT|151=0.000|14=6.000|6=9.073|75=20200821|60=20200821-19:52:16.194|7937=00|7938=N0|7939=00|10=072|
20200821-19:52:21.663 : 8=FIX.4.4|9=91|35=1|49=UPROMETHEUM|56=UICSYSTEM|34=643|52=20200821-19:52:21.672|112=20200821-19:52:21.672|10=105|
20200821-19:52:21.663 : 8=FIX.4.4|9=91|35=0|34=639|49=UICSYSTEM|52=20200821-19:52:21.663|56=UPROMETHEUM|112=20200821-19:52:21.672|10=109|
20200821-19:52:51.700 : 8=FIX.4.4|9=91|35=1|49=UPROMETHEUM|56=UICSYSTEM|34=644|52=20200821-19:52:51.708|112=20200821-19:52:51.708|10=112|
20200821-19:52:51.700 : 8=FIX.4.4|9=91|35=0|34=640|49=UICSYSTEM|52=20200821-19:52:51.700|56=UPROMETHEUM|112=20200821-19:52:51.708|10=099|
20200821-19:53:17.828 : 8=FIX.4.4|9=428|35=8|49=UPROMETHEUM|56=UICSYSTEM|34=645|52=20200821-19:53:17.840|37=1484456890000007|11=1484456890000007|453=6|448=PROMB|447=D|452=50|448=CLB|447=D|452=51|448=000000000002B|447=D|452=52|448=CB|447=D|452=53|448=PEATB|447=D|452=56|448=TB|447=D|452=54|17=1484456947000004|150=F|39=2|55=MBR|167=CS|54=1|38=20.000|99=4.500|54=1|38=10.000|99=8.000|54=1|38=2.000|99=8.000|54=2|38=12.000|99=8.000|54=2|38=10.000|99=4.500|54=2|38=10.000|99=4.500|40=1|59=3|32=10.000|31=4.500|30=PEAT|151=0.000|14=32.000|6=5.8125|75=20200821|60=20200821-19:53:17.809|7937=00|7938=N0|7939=00|10=077|
20200821-19:53:21.720 : 8=FIX.4.4|9=91|35=1|49=UPROMETHEUM|56=UICSYSTEM|34=646|52=20200821-19:53:21.733|112=20200821-19:53:21.733|10=106|
20200821-19:53:21.720 : 8=FIX.4.4|9=91|35=0|34=641|49=UICSYSTEM|52=20200821-19:53:21.720|56=UPROMETHEUM|112=20200821-19:53:21.733|10=096|
20200821-19:53:51.756 : 8=FIX.4.4|9=91|35=1|49=UPROMETHEUM|56=UICSYSTEM|34=647|52=20200821-19:53:51.762|112=20200821-19:53:51.762|10=117|