20200824-19:06:36.206 : 8=FIX.4.4|9=92|35=1|49=UPROMETHEUM|56=UICSYSTEM|34=1814|52=20200824-19:06:36.211|112=20200824-19:06:36.211|10=149|
20200824-19:06:36.206 : 8=FIX.4.4|9=92|35=0|34=1811|49=UICSYSTEM|52=20200824-19:06:36.206|56=UPROMETHEUM|112=20200824-19:06:36.211|10=149|
20200824-19:07:06.246 : 8=FIX.4.4|9=92|35=1|49=UPROMETHEUM|56=UICSYSTEM|34=1815|52=20200824-19:07:06.253|112=20200824-19:07:06.253|10=158|
20200824-19:07:06.246 : 8=FIX.4.4|9=92|35=0|34=1812|49=UICSYSTEM|52=20200824-19:07:06.246|56=UPROMETHEUM|112=20200824-19:07:06.253|10=156|
20200824-19:07:36.581 : 8=FIX.4.4|9=66|35=0|34=1813|49=UICSYSTEM|52=20200824-19:07:36.581|56=UPROMETHEUM|10=159|
20200824-19:07:37.973 : 8=FIX.4.4|9=92|35=1|49=UPROMETHEUM|56=UICSYSTEM|34=1816|52=20200824-19:07:36.282|112=20200824-19:07:36.282|10=169|
20200824-19:07:37.973 : 8=FIX.4.4|9=92|35=0|34=1814|49=UICSYSTEM|52=20200824-19:07:37.973|56=UPROMETHEUM|112=20200824-19:07:36.282|10=174|
20200824-19:08:06.305 : 8=FIX.4.4|9=66|35=0|49=UPROMETHEUM|56=UICSYSTEM|34=1817|52=20200824-19:08:06.317|10=158|
20200824-19:08:07.306 : 8=FIX.4.4|9=92|35=1|49=UPROMETHEUM|56=UICSYSTEM|34=1818|52=20200824-19:08:07.318|112=20200824-19:08:07.318|10=169|
20200824-19:08:07.306 : 8=FIX.4.4|9=92|35=0|34=1815|49=UICSYSTEM|52=20200824-19:08:07.306|56=UPROMETHEUM|112=20200824-19:08:07.318|10=162|
20200824-19:08:37.341 : 8=FIX.4.4|9=92|35=1|49=UPROMETHEUM|56=UICSYSTEM|34=1819|52=20200824-19:08:37.353|112=20200824-19:08:37.353|10=174|
20200824-19:08:37.341 : 8=FIX.4.4|9=92|35=0|34=1816|49=UICSYSTEM|52=20200824-19:08:37.341|56=UPROMETHEUM|112=20200824-19:08:37.353|10=167|
20200824-19:08:43.686 : 8=FIX.4.4|9=429|35=8|49=UPROMETHEUM|56=UICSYSTEM|34=1820|52=20200824-19:08:43.685|37=1484456890000018|11=1484456890000018|453=6|448=PROMB|447=D|452=50|448=CLB|447=D|452=51|448=000000000002B|447=D|452=52|448=CB|447=D|452=53|448=PEATB|447=D|452=56|448=TB|447=D|452=54|17=1484456947000005|150=F|39=2|55=MBR|167=CS|54=1|38=5.000|99=15.900|54=1|38=5.000|99=15.900|54=2|38=7.000|99=15.900|54=2|38=1.000|99=15.900|54=2|38=1.000|99=15.900|54=2|38=1.000|99=15.900|40=2|59=0|32=1.000|31=15.900|30=PEAT|151=0.000|14=10.000|6=15.900|75=20200824|60=20200824-19:08:43.649|7937=00|7938=N0|7939=00|10=141|
20200824-19:08:59.866 : 8=FIX.4.4|9=429|35=8|49=UPROMETHEUM|56=UICSYSTEM|34=1821|52=20200824-19:08:59.870|37=1484456890000019|11=1484456890000019|453=6|448=PROMB|447=D|452=50|448=CLB|447=D|452=51|448=000000000002B|447=D|452=52|448=CB|447=D|452=53|448=PEATB|447=D|452=56|448=TB|447=D|452=54|17=1484456947000006|150=F|39=2|55=MBR|167=CS|54=1|38=3.000|99=10.010|54=1|38=1.000|99=10.010|54=1|38=2.000|99=7.200|54=2|38=4.000|99=10.010|54=2|38=1.000|99=7.200|54=2|38=1.000|99=7.200|40=2|59=0|32=1.000|31=7.200|30=PEAT|151=0.000|14=6.000|6=9.073|75=20200824|60=20200824-19:08:59.834|7937=00|7938=N0|7939=00|10=151|
20200824-19:09:07.382 : 8=FIX.4.4|9=92|35=1|49=UPROMETHEUM|56=UICSYSTEM|34=1822|52=20200824-19:09:07.384|112=20200824-19:09:07.384|10=172|
20200824-19:09:07.382 : 8=FIX.4.4|9=92|35=0|34=1817|49=UICSYSTEM|52=20200824-19:09:07.382|56=UPROMETHEUM|112=20200824-19:09:07.384|10=173|
20200824-19:09:33.671 : 8=FIX.4.4|9=429|35=8|49=UPROMETHEUM|56=UICSYSTEM|34=1823|52=20200824-19:09:33.671|37=1484456890000020|11=1484456890000020|453=6|448=PROMC|447=D|452=60|448=CLC|447=D|452=61|448=000000000002C|447=D|452=62|448=CC|447=D|452=63|448=PEATC|447=D|452=66|448=TC|447=D|452=64|17=1484456947000007|150=F|39=2|55=MBR|167=CS|54=1|38=20.000|99=4.500|54=1|38=10.000|99=8.000|54=1|38=2.000|99=8.000|54=2|38=12.000|99=8.000|54=2|38=10.000|99=4.500|54=2|38=10.000|99=4.500|40=2|59=0|32=10.000|31=4.500|30=PEAT|151=0.000|14=32.000|6=5.8125|75=20200824|60=20200824-19:09:33.641|7937=00|7938=N0|7939=00|10=119|
20200824-19:09:37.405 : 8=FIX.4.4|9=92|35=1|49=UPROMETHEUM|56=UICSYSTEM|34=1824|52=20200824-19:09:37.413|112=20200824-19:09:37.413|10=166|
20200824-19:09:37.405 : 8=FIX.4.4|9=92|35=0|34=1818|49=UICSYSTEM|52=20200824-19:09:37.405|56=UPROMETHEUM|112=20200824-19:09:37.413|10=169|
20200824-19:10:07.441 : 8=FIX.4.4|9=92|35=1|49=UPROMETHEUM|56=UICSYSTEM|34=1825|52=20200824-19:10:07.446|112=20200824-19:10:07.446|10=157|
20200824-19:10:07.441 : 8=FIX.4.4|9=92|35=0|34=1819|49=UICSYSTEM|52=20200824-19:10:07.441|56=UPROMETHEUM|112=20200824-19:10:07.446|10=154|
20200824-19:10:09.083 : 8=FIX.4.4|9=429|35=8|49=UPROMETHEUM|56=UICSYSTEM|34=1826|52=20200824-19:10:09.086|37=1484456890000021|11=1484456890000021|453=6|448=PROMA|447=D|452=40|448=CLA|447=D|452=41|448=000000000002A|447=D|452=42|448=CA|447=D|452=43|448=PEATA|447=D|452=46|448=TA|447=D|452=44|17=1484456947000008|150=F|39=2|55=MBR|167=CS|54=1|38=4.000|99=2.300|54=1|38=7.000|99=3.140|54=1|38=1.000|99=2.300|54=1|38=3.000|99=3.140|54=2|38=5.000|99=2.300|54=2|38=10.000|99=3.140|40=2|59=0|32=10.000|31=3.140|30=PEAT|151=0.000|14=15.000|6=2.860|75=20200824|60=20200824-19:10:09.067|7937=00|7938=N0|7939=00|10=117|
20200824-19:10:37.461 : 8=FIX.4.4|9=92|35=1|49=UPROMETHEUM|56=UICSYSTEM|34=1827|52=20200824-19:10:37.475|112=20200824-19:10:37.475|10=169|
20200824-19:10:37.461 : 8=FIX.4.4|9=92|35=0|34=1820|49=UICSYSTEM|52=20200824-19:10:37.461|56=UPROMETHEUM|112=20200824-19:10:37.475|10=156|
20200824-19:11:07.502 : 8=FIX.4.4|9=92|35=1|49=UPROMETHEUM|56=UICSYSTEM|34=1828|52=20200824-19:11:07.510|112=20200824-19:11:07.510|10=146|
20200824-19:11:07.502 : 8=FIX.4.4|9=92|35=0|34=1821|49=UICSYSTEM|52=20200824-19:11:07.502|56=UPROMETHEUM|112=20200824-19:11:07.510|10=139|
20200824-19:11:37.537 : 8=FIX.4.4|9=92|35=1|49=UPROMETHEUM|56=UICSYSTEM|34=1829|52=20200824-19:11:37.545|112=20200824-19:11:37.545|10=169|