20200819-13:48:44.843 : 8=FIX.4.4|9=91|35=1|49=UPROMETHEUM|56=UICSYSTEM|34=383|52=20200819-13:48:44.848|112=20200819-13:48:44.848|10=138|
20200819-13:48:44.843 : 8=FIX.4.4|9=91|35=0|34=381|49=UICSYSTEM|52=20200819-13:48:44.843|56=UPROMETHEUM|112=20200819-13:48:44.848|10=130|
20200819-13:49:14.879 : 8=FIX.4.4|9=91|35=1|49=UPROMETHEUM|56=UICSYSTEM|34=384|52=20200819-13:49:14.880|112=20200819-13:49:14.880|10=127|
20200819-13:49:14.879 : 8=FIX.4.4|9=91|35=0|34=382|49=UICSYSTEM|52=20200819-13:49:14.879|56=UPROMETHEUM|112=20200819-13:49:14.880|10=132|
20200819-13:49:22.099 : 8=FIX.4.4|9=428|35=8|49=UPROMETHEUM|56=UICSYSTEM|34=385|52=20200819-13:49:22.108|37=1484224595000004|11=1484224595000004|453=6|448=PROMA|447=D|452=40|448=CLA|447=D|452=41|448=000000000002A|447=D|452=42|448=CA|447=D|452=43|448=PEATA|447=D|452=46|448=TA|447=D|452=44|17=1484080956000003|150=F|39=2|55=MBR|167=CS|54=1|38=4.000|99=2.300|54=1|38=7.000|99=3.140|54=1|38=1.000|99=2.300|54=1|38=3.000|99=3.140|54=2|38=5.000|99=2.300|54=2|38=10.000|99=3.140|40=1|59=3|32=10.000|31=3.140|30=PEAT|151=0.000|14=15.000|6=2.860|75=20200819|60=20200819-13:49:22.079|7937=00|7938=N0|7939=00|10=079|
20200819-13:49:22.115 : 8=FIX.4.4|9=428|35=8|49=UPROMETHEUM|56=UICSYSTEM|34=386|52=20200819-13:49:22.108|37=1484224595000003|11=1484224595000003|453=6|448=PROMB|447=D|452=50|448=CLB|447=D|452=51|448=000000000002B|447=D|452=52|448=CB|447=D|452=53|448=PEATB|447=D|452=56|448=TB|447=D|452=54|17=1484080956000003|150=F|39=1|55=MBR|167=CS|54=1|38=4.000|99=2.300|54=1|38=7.000|99=3.140|54=1|38=1.000|99=2.300|54=1|38=3.000|99=3.140|54=2|38=5.000|99=2.300|54=2|38=10.000|99=3.140|40=2|59=0|32=10.000|31=3.140|30=PEAT|151=0.000|14=15.000|6=2.860|75=20200819|60=20200819-13:49:22.079|7937=00|7938=N0|7939=00|10=077|
20200819-13:49:44.898 : 8=FIX.4.4|9=91|35=1|49=UPROMETHEUM|56=UICSYSTEM|34=387|52=20200819-13:49:44.906|112=20200819-13:49:44.906|10=134|
20200819-13:49:44.898 : 8=FIX.4.4|9=91|35=0|34=383|49=UICSYSTEM|52=20200819-13:49:44.898|56=UPROMETHEUM|112=20200819-13:49:44.906|10=139|
20200819-13:50:14.934 : 8=FIX.4.4|9=91|35=1|49=UPROMETHEUM|56=UICSYSTEM|34=388|52=20200819-13:50:14.937|112=20200819-13:50:14.937|10=121|
20200819-13:50:14.934 : 8=FIX.4.4|9=91|35=0|34=384|49=UICSYSTEM|52=20200819-13:50:14.934|56=UPROMETHEUM|112=20200819-13:50:14.937|10=113|
20200819-13:50:44.959 : 8=FIX.4.4|9=91|35=1|49=UPROMETHEUM|56=UICSYSTEM|34=389|52=20200819-13:50:44.971|112=20200819-13:50:44.971|10=124|
20200819-13:50:44.959 : 8=FIX.4.4|9=91|35=0|34=385|49=UICSYSTEM|52=20200819-13:50:44.959|56=UPROMETHEUM|112=20200819-13:50:44.971|10=125|